:100000000C9462000C948A000C948A000C948A0070
:100010000C948A000C948A000C948A000C94F001D1
:100020000C948A000C948A000C948A000C948A0028
:100030000C948A000C948A000C948A000C948A0018
:100040000C948B030C948A000C94BE010C949801C0
:100050000C948A000C948A000C948A000C948A00F8
:100060000C948A000C948A000000000025002800EF
:100070002B0000000000240027002A0004040404D0
:100080000404040402020202020203030303030342
:10009000010204081020408001020408102001021F
:1000A00004081020000000002300260029000000A2
:1000B0000008000201000003040700000000000027
:1000C0000000520A11241FBECFEFD8E0DEBFCDBF23
:1000D00011E0A0E0B1E0EAE9FAE102C005900D927A
:1000E000A631B107D9F722E0A6E1B1E001C01D9227
:1000F000A939B207E1F710E0C2E6D0E004C02197C9
:10010000FE010E94310DC136D107C9F70E94D50307
:100110000C944B0D0C940000CF92DF92EF92FF9263
:100120000F931F93CF93DF936C017A018B01C0E093
:10013000D0E0CE15DF0589F0D8016D918D01D60193
:10014000ED91FC910190F081E02DC6010995892B7C
:1001500011F47E0102C02196ECCFC701DF91CF914F
:100160001F910F91FF90EF90DF90CF900895089529
:1001700080E090E00895FC01538D448D252F30E000
:10018000842F90E0821B930B541710F0CF960895A4
:1001900001970895FC01918D828D981761F0828DF1
:1001A000DF01A80FB11D5D968C91928D9F5F9F73AB
:1001B000928F90E008958FEF9FEF0895FC01918D4D
:1001C000828D981731F0828DE80FF11D858D90E0BA
:1001D00008958FEF9FEF0895FC01918D228D892F57
:1001E00090E0805C9F4F821B91098F73992708953F
:1001F00084E291E00E94EC0021E0892B09F420E0E8
:10020000822F0895FC01848DDF01A80FB11DA35A30
:10021000BF4F2C91848D90E001968F739927848F26
:10022000A689B7892C93A089B1898C9180648C931D
:10023000938D848D981306C00288F389E02D808108
:100240008F7D80830895EF92FF920F931F93CF933A
:10025000DF93EC0181E0888F9B8D8C8D981305C016
:10026000E889F989808185FD24C0F62E0B8D10E088
:100270000F5F1F4F0F731127E02E8C8DE8120CC0FB
:100280000FB607FCFACFE889F989808185FFF5CFA1
:10029000CE010E940201F1CF8B8DFE01E80FF11D0E
:1002A000E35AFF4FF0820B8FEA89FB8980818062DD
:1002B00007C0EE89FF896083E889F98980818064BD
:1002C000808381E090E0DF91CF911F910F91FF90AB
:1002D000EF900895CF93DF93EC01888D8823C9F0C8
:1002E000EA89FB89808185FD05C0A889B9898C913F
:1002F00086FD0FC00FB607FCF5CF808185FFF2CFDA
:10030000A889B9898C9185FFEDCFCE010E940201A9
:10031000E7CFDF91CF91089580E090E0892B29F01D
:100320000E94F80081110C94000008950E94460D6F
:100330001F920F920FB60F9211242F933F934F935A
:100340005F936F937F938F939F93AF93BF93EF933D
:10035000FF9384E291E00E940201FF91EF91BF912F
:10036000AF919F918F917F916F915F914F913F914D
:100370002F910F900FBE0F901F9018951F920F9204
:100380000FB60F9211242F938F939F93EF93FF93A8
:10039000E0913401F09135018081E0913A01F091D2
:1003A0003B0182FD12C0908180913D018F5F8F7370
:1003B00020913E01821751F0E0913D01F0E0EC5DAB
:1003C000FE4F958F80933D0101C08081FF91EF9199
:1003D0009F918F912F910F900FBE0F901F901895A6
:1003E0001F920F920FB60F9211242F933F934F93AA
:1003F0008F939F93AF93BF93EF93FF938091C1012E
:1004000090E0FC01E255FF4F2491FC01E057FF4FC3
:100410003491FC01E458FF4FE491EE23C9F122230B
:1004200039F1233091F038F42130A9F0223001F570
:1004300084B58F7D12C0273091F02830A1F0243090
:10044000B9F4809180008F7D03C0809180008F7708
:10045000809380000DC084B58F7784BD09C08091E2
:10046000B0008F7703C08091B0008F7D8093B00083
:10047000F0E0EE0FFF1FEC55FF4FA591B491EC910A
:100480003E2341E020E009F440E0842F922F02C097
:1004900080E090E02091C4013091C5012F5F3F4F73
:1004A0003093C5012093C40120918E02243618F0A8
:1004B00025E02093C2012091C2012330C1F018F43D
:1004C000223039F059C0243069F1253009F44EC08A
:1004D00053C0009709F050C02091C4013091C5016C
:1004E0002436310508F444C010928E021DC08130BC
:1004F000910509F041C0E0918E0221E02E0F20937A
:100500008E02F0E02091C4013091C501EE0FFF1F73
:10051000EF53FE4F368325831092C5011092C4011C
:1005200024E021C00097B9F4E0918E0221E02E0F63
:1005300020938E02F0E02091C4013091C501EE0FAE
:10054000FF1FEF53FE4F368325831092C501109293
:10055000C40123E008C02091C4013091C5012536B3
:10056000310550F025E02093C20106C0009721F428
:100570001092C5011092C4012091C301222329F0D9
:10058000892B11F42D9A01C02D98FF91EF91BF9105
:10059000AF919F918F914F913F912F910F900FBEEF
:1005A0000F901F901895CF92DF92EF92FF92CF930A
:1005B000DF93EC01072E000C880B990B0E94A00B17
:1005C0006B017C0120E030E040E45FE30E94500CCE
:1005D00020E030E048E452E40E94F60A0E94680BF2
:1005E000C617D707D4F020E030E040EA5FE3C70148
:1005F000B6010E94500C20E030E048E452E40E9432
:10060000F60A20E030E040E85FE30E94850A0E949D
:10061000680B21E06C177D070CF420E0822F90E03E
:10062000DF91CF91FF90EF90DF90CF9008958F9260
:100630009F92AF92BF92CF92DF92EF92FF920F9371
:100640001F93CF93DF93FC01C081D18120912201C0
:1006500030912301C217D3070CF04BC09E01220F2B
:10066000331FE0912001F0912101E20FF31F808000
:100670009180C170DD27F1E0CF27209719F404E6BF
:1006800010E002C00CE91FEF7A015B016C01040F5E
:10069000151FB801C4010E94D302892B99F40E0DD5
:1006A0001F1DB801C4010E94D302892B71F4B80147
:1006B0006E0D7F1DC4010E94D302892BE9F023E057
:1006C00030E005C021E030E002C022E030E0F5017A
:1006D000808191810196821793073CF0F501118288
:1006E0001082F60180819181019691838083CE01F1
:1006F00005C081E090E002C08FEF9FEFDF91CF91C6
:100700001F910F91FF90EF90DF90CF90BF90AF902F
:100710009F908F9008951F920F920FB60F92112401
:100720002F933F938F939F93AF93BF9380919502A5
:1007300090919602A0919702B09198023091940204
:1007400023E0230F2D3720F40196A11DB11D05C014
:1007500026E8230F0296A11DB11D209394028093D9
:10076000950290939602A0939702B093980280917D
:10077000900290919102A0919202B0919302019601
:10078000A11DB11D8093900290939102A0939202BB
:10079000B0939302BF91AF919F918F913F912F9111
:1007A0000F900FBE0F901F901895CF93DF93CDB78A
:1007B000DEB7A9970FB6F894DEBF0FBECDBF789411
:1007C00084B5826084BD84B5816084BD85B5826056
:1007D00085BD85B5816085BD80916E008160809307
:1007E0006E00109281008091810082608093810070
:1007F0008091810081608093810080918000816080
:10080000809380008091B10084608093B1008091DA
:10081000B00081608093B00080917A008460809302
:100820007A0080917A00826080937A0080917A00C9
:10083000816080937A0080917A00806880937A004A
:100840001092C100E0913401F091350182E0808383
:10085000E0913001F09131011082E0913201F0918C
:1008600033019FEC908310923C01E0913801F091AC
:10087000390196E09083E0913601F0913701908143
:1008800090619083E0913601F091370190819860FA
:100890009083E0913601F0913701908190689083C8
:1008A000E0913601F091370190819F7D9083F8941B
:1008B0008093B0008093B10094E69093B3001092BF
:1008C000B2008093700078948093C20110928E02DF
:1008D0008091C10190E0FC01E057FF4F2491FC01A1
:1008E000E458FF4F84918823C9F090E0880F991F46
:1008F000FC01EE58FF4F45915491FC01E859FF4F20
:10090000A591B4919FB7F894FA0180812095822334
:1009100080838C91E22FE823EC939FBFEDE9F0E018
:100920002491E9E8F0E08491882399F090E0880F21
:10093000991FFC01EE58FF4FA591B491FC01E859B5
:10094000FF4F859194918FB7F894EC91E22BEC9343
:100950008FBF44244A94542C320186EC91E090934A
:1009600021018093200180918E0290E090932301D9
:10097000809322018091C201853009F08CC2809160
:10098000C8019091C901885891098D35910588F465
:1009900080918E02843041F48091CA019091CB0104
:1009A0008097479708F493C280918E02843408F0B0
:1009B00075C280918E028A3108F44DC08091C601C3
:1009C0009091C701843F914068F410921F011092EA
:1009D0001E0140921A0150921B0160921C017092FC
:1009E0001D0157C08091C8019091C90185974B970F
:1009F00090F5ECECF1E082E090E040E050E0BA01EC
:100A000020918E0230E0DC011196A217B30754F456
:100A1000DF0112972D913C91275031092730310584
:100A200008F499C201979595879590931F0180933B
:100A30001E010C972CF410921F0110921E010BC086
:100A400040931A0150931B0160931C0170931D0188
:100A500082E090E075C380918E028A3108F449C02B
:100A60008091C6019091C7018032934008F4ADCFC8
:100A70008091C8019091C901C697869708F487C2F2
:100A800038C040931A0150931B0160931C0170936E
:100A90001D0189E090E054C3208131812552310944
:100AA0002B31310508F083C2440F551F661F771F95
:100AB00041600296349620918E0230E0DC0111965E
:100AC000A217B3074CF4DF0112972D913C912C50E3
:100AD00031092B30310500F3019795958795909357
:100AE0001F0180931E010C9764F610921F01109253
:100AF0001E0180918E02823208F44DC08091C8019F
:100B00009091C9010697079708F045C0ECECF1E019
:100B100082E090E0C12CD12C76019C012F5F3F4FE9
:100B200040918E0250E024173507E4F4DF0112975C
:100B30004D915C9111974E5151094731510508F083
:100B400043C2CC0CDD1CEE1CFF1C6894C0F8408135
:100B500051813496435051094530510510F40296A5
:100B6000DCCFC90101979595879590931F018093DC
:100B70001E0140972CF410921F0110921E010BC011
:100B8000C0921A01D0921B01E0921C01F0921D014B
:100B90008AE090E0D5C280918E028D3048F4809139
:100BA000220190912301181619060CF483C08FC0FE
:100BB00081E090E09BA38AA31A82198249E753E05F
:100BC000BE016F5F7F4FCE0182960E941703892B73
:100BD00021F080E090E0DC0167C049E753E0BE010E
:100BE0006F5F7F4FCE0182960E941703019789F7AE
:100BF00049E753E0BE016F5F7F4FCE0182960E94AE
:100C00001703892B31F700E010E0812C912C54015F
:100C100080918E0290E02AA13BA12817390774F534
:100C200049E753E0BE016F5F7F4FCE0182960E947D
:100C300017037C0149E753E0BE016F5F7F4FCE0190
:100C400082960E941703F1E0EF16F10451F4892B0C
:100C500009F0BFCF880C991CAA1CBB1C689480F8B3
:100C60000AC0EF2809F0B5CF019709F0B2CF880C80
:100C7000991CAA1CBB1C0F5F1F4FCACF10931F01EA
:100C800000931E0180921A0190921B01A0921C01F8
:100C9000B0921D0183E090E09093170180931601BC
:100CA00081E090E0A0E0B0E0892B8A2B8B2B09F04B
:100CB000B9C075CF81E090E09BA38AA3E0912001A9
:100CC000F09121018281938189974E9720F080E0F5
:100CD00090E0DC014AC082E090E09BA38AA384817B
:100CE00095810B970A9798F783E090E09BA38AA3DE
:100CF0001A8219824CEB51E0BE016F5F7F4FCE012B
:100D000082960E941703892B11F74CEB51E0BE012C
:100D10006F5F7F4FCE0182960E9417030197B9F64D
:100D200000E010E0812C912C54012AA13BA180917C
:100D3000220190912301281739070CF452C1109316
:100D40001F0100931E0180921A0190921B01A09234
:100D50001C01B0921D0184E090E0909317018093F4
:100D6000160181E090E0A0E0B0E0892B8A2B8B2B6C
:100D700009F058C0E0912001F09121018281938116
:100D8000C697869708F08DC1848195814B974597CA
:100D900008F087C1DF0116967F0116ECE10EF11C09
:100DA00020E030E040E050E060E070E080E090E083
:100DB000CD90DC90119719E0C11AD10818E0C11646
:100DC000D10408F06EC11296CD90DC90139711E11A
:100DD000C11AD1081DE0C116D10408F053C101E0C9
:100DE0000E94FA0C21601496AE15BF0509F72093F6
:100DF0001A0130931B0140931C0150931D0100E226
:100E00000E94150D209318013093190187E090E09E
:100E1000909317018093160180E390E090931F0157
:100E200080931E0120911A0130911B0140911C01F9
:100E300050911D0119A28E010F5D1F4FCA01B9010A
:100E40002AE030E040E050E00E94CD0C605DD80127
:100E50006E938D01211531054105510579F71097E4
:100E600069F0FD0101900020E9F73197AF014A1BBD
:100E70005B0BBD0184E291E00E948C0042E050E0F7
:100E800062E171E084E291E00E948C0082E0809354
:100E9000C20110928E020E948C015FCD8091CA0126
:100EA0009091CB01825491098E9708F082CD80E019
:100EB00090E040E050E0BA01FC01E453FE4F208195
:100EC00031812950310929303105B0F072CD80913E
:100ED000CC019091CD010997099708F065CD10924A
:100EE0001F0110921E0140921A0150921B01609244
:100EF0001C0170921D0129C1FC01E253FE4F2081AB
:100F000031812651310921313105C0F4440F551F7B
:100F1000661F771F416004968038910569F6A0E24C
:100F2000B0E0B0931F01A0931E0140931A015093AB
:100F30001B0160931C0170931D0107C12081318149
:100F4000265031092730310508F033CD440F551FA5
:100F5000661F771FE0CF20813181235131092F3067
:100F6000310540F4440F551F661F771F41600296FC
:100F7000349646CD208131812A50310929303105FE
:100F800008F069CD440F551F661F771FF0CF809181
:100F9000CA019091CB01C697869708F0AACDEEECD6
:100FA000F1E083E090E040E050E0BA0184CD2081A0
:100FB00031812C5031092A30310508F09ACD440F87
:100FC000551F661F771F75CD4D915C914C5051098F
:100FD0004B30510508F0DFCDCC0CDD1CEE1CFF1CA6
:100FE000B6CD4CEB51E0BE016F5F7F4FCE018296D4
:100FF0000E9417036C010330110571F04CEB51E0B6
:10100000BE016F5F7F4FCE0182960E9417037C0165
:1010100003301105D9F40DC04CEB51E0BE016F5FF8
:101020007F4FCE0182960E941703C816D90631F36E
:101030004ECE4CEB51E0BE016F5F7F4FCE018296EA
:101040000E941703E816F90609F041CEC114D10435
:1010500059F4EA94EF2809F03ACE880C991CAA1C9E
:10106000BB1C689480F80BC0CA94CD2809F02FCE21
:10107000EF2809F02CCE880C991CAA1CBB1C0F5F12
:101080001F4F53CE1296CD90DC90139714E0C11AE7
:10109000D10815E0C116D10420F401E00E94FA0C39
:1010A000A2CE828193818957910983359105D0F42D
:1010B00080918E028933B0F084819581CA97899797
:1010C00088F49F012A5F3F4FC12CD12C760143E069
:1010D00050E0D9016D917C916A50710969307105B8
:1010E00008F4C6C080918E02823291F18281938190
:1010F000895791098335910508F41FC18281938135
:101100008C549109C59780F580918E02843039F511
:10111000848195818097479710F5868197810997FB
:101120000997E8F410921F0110921E0140921A01D3
:1011300050921B0160921C0170921D018BE090E0A7
:1011400090931701809316016DCE81E090E0F8CF67
:10115000828193810A97099708F4D3C0C7CF809101
:101160008E02843408F04EC18091220190912301B7
:101170009DA38CA306970CF489CE8F010A5F1F4FA5
:1011800055ECC52E5DE9D52E5CE1E52E51E8F52E36
:1011900063E0262E312CD8016D917C91F8013497B3
:1011A000A080B18080E090E00E949E0B6EA37FA3A0
:1011B00088A799A7B50180E090E00E949E0B4B01A3
:1011C0005C012DEC3CEC4CE45FE30E94500C9B0175
:1011D000AC016EA17FA188A599A50E94F10A87FDA7
:1011E00019C02DEC3CEC4CE45FE36EA17FA188A517
:1011F00099A50E94500C9B01AC01C501B4010E944D
:10120000F10AE82F880FFF0BEE27FF0FEE1FFF27D5
:10121000319602C0E0E0F0E0A701960163E971E0D9
:1012200080E091E00E94BD0C6F01FF0FEE08FF0807
:10123000C626D726E826F926BFEF2B1A3B0A0E5FF3
:101240001F4FECA1FDA12E163F0609F0A4CFC092BE
:101250001A01D0921B01E0921C01F0921D0180E264
:1012600090E090931F0180931E018FEF9FEF68CF56
:10127000D90112966D917C91139766517109613174
:10128000710578F5D701C601880F991FAA1FBB1FEA
:101290006C017D016894C0F84E5F5F4F2C5F3F4F3B
:1012A0004B33510509F015CF9F012A583F4FD90103
:1012B0002D913C912A5031092930310508F012CF87
:1012C0002CE130E030931F0120931E01C0921A01DF
:1012D000D0921B01E0921C01F0921D018CE090E085
:1012E0002FCFD90112966D917C9113976650710999
:1012F0006730710508F0F6CECC0CDD1CEE1CFF1C2F
:10130000CBCF20918E02CF01820F911D820F911DB4
:10131000DC0112978D919C910A97099708F0E6CE0F
:1013200010921F0110921E0140921A0150921B014F
:1013300060921C0170921D0162C080918E02813208
:1013400008F4DCCE84819581CA97899708F0D6CEBF
:101350009F012A5F3F4FC12CD12C760143E050E022
:10136000D9016D917C916A5071096930710508F05D
:10137000C5CED90112966D917C9113976651710972
:101380006131710560F5D701C601880F991FAA1F49
:10139000BB1F6C017D016894C0F84E5F5F4F2C5FEE
:1013A0003F4F43325105E1F69F012A5B3F4FD90180
:1013B0002D913C912A5031092930310508F09ECEFB
:1013C00020E130E030931F0120931E01C0921A01EA
:1013D000D0921B01E0921C01F0921D0110C0D901B6
:1013E00012966D917C911397665071096730710563
:1013F00008F084CECC0CDD1CEE1CFF1CCECF88E0A8
:1014000090E09ECE8481958189549109C39708F01C
:10141000ABCE9F012A5F3F4FBF016A577F4FC12C60
:10142000D12C7601D9014D915C9149505109493037
:10143000510508F099CED90112964D915C91139700
:10144000465151094131510510F112964D915C916F
:101450001397465051094730510508F085CECC0C02
:10146000DD1CEE1CFF1C2C5F3F4F26173707D1F603
:10147000E0E2F0E0F0931F01E0931E01C0921A0138
:10148000D0921B01E0921C01F0921D0157CED701B2
:10149000C601880F991FAA1FBB1F6C017D016894AC
:1014A000C0F8E1CFE4E2F1E01382128288EE93E02B
:1014B000A0E0B0E084839583A683B78384E091E0C5
:1014C0009183808385EC90E09587848784EC90E01D
:1014D0009787868780EC90E0918B808B81EC90E001
:1014E000938B828B82EC90E0958B848B86EC90E0E2
:1014F000978B868B118E128E138E148EE1ECF1E099
:101500008BE08083128208955058BB27AA270E943F
:101510009C0A0C94160C0E94080C38F00E940F0CC8
:1015200020F039F49F3F19F426F40C94050C0EF4C6
:10153000E095E7FB0C94FF0BE92F0E94270C58F372
:10154000BA17620773078407950720F079F4A6F5A8
:101550000C94490C0EF4E0950B2EBA2FA02D0B0124
:10156000B90190010C01CA01A0011124FF27591BE8
:1015700099F0593F50F4503E68F11A16F040A22FEE
:10158000232F342F4427585FF3CF4695379527955F
:10159000A795F0405395C9F77EF41F16BA0B620B5E
:1015A000730B840BBAF09150A1F0FF0FBB1F661FA5
:1015B000771F881FC2F70EC0BA0F621F731F841FE8
:1015C00048F4879577956795B795F7959E3F08F00E
:1015D000B0CF9395880F08F09927EE0F97958795D0
:1015E00008950E94DB0B08F481E008950E940A0B25
:1015F0000C94160C0E940F0C58F00E94080C40F03E
:1016000029F45F3F29F00C94FF0B51110C944A0C04
:101610000C94050C0E94270C68F39923B1F3552311
:1016200091F3951B550BBB27AA27621773078407F5
:1016300038F09F5F5F4F220F331F441FAA1FA9F38B
:1016400035D00E2E3AF0E0E832D091505040E69579
:10165000001CCAF72BD0FE2F29D0660F771F881FDA
:10166000BB1F261737074807AB07B0E809F0BB0BCD
:10167000802DBF01FF2793585F4F3AF09E3F5105E1
:1016800078F00C94FF0B0C944A0C5F3FE4F3983E07
:10169000D4F3869577956795B795F7959F5FC9F7CA
:1016A000880F911D9695879597F90895E1E0660F4B
:1016B000771F881FBB1F621773078407BA0720F0C4
:1016C000621B730B840BBA0BEE1F88F7E09508952D
:1016D0000E946F0B6894B1110C944A0C08950E94FB
:1016E0002F0C88F09F5798F0B92F9927B751B0F079
:1016F000E1F0660F771F881F991F1AF0BA95C9F796
:1017000014C0B13091F00E94490CB1E008950C94DE
:10171000490C672F782F8827B85F39F0B93FCCF391
:10172000869577956795B395D9F73EF49095809512
:10173000709561957F4F8F4F9F4F0895E89409C032
:1017400097FB3EF490958095709561957F4F8F4FF4
:101750009F4F9923A9F0F92F96E9BB279395F6950A
:10176000879577956795B795F111F8CFFAF4BB0F88
:1017700011F460FF1BC06F5F7F4F8F4F9F4F16C0EC
:10178000882311F096E911C0772321F09EE8872F76
:10179000762F05C0662371F096E8862F70E060E032
:1017A0002AF09A95660F771F881FDAF7880F9695AB
:1017B000879597F90895990F0008550FAA0BE0E84F
:1017C000FEEF16161706E807F907C0F01216130603
:1017D000E407F50798F0621B730B840B950B39F443
:1017E0000A2661F0232B242B252B21F408950A26A9
:1017F00009F4A140A6958FEF811D811D089597F9E9
:101800009F6780E870E060E008959FEF80EC0895A6
:1018100000240A94161617061806090608950024CF
:101820000A9412161306140605060895092E039449
:10183000000C11F4882352F0BB0F40F4BF2B11F4BD
:1018400060FF04C06F5F7F4F8F4F9F4F089557FD1C
:101850009058440F551F59F05F3F71F04795880F1E
:1018600097FB991F61F09F3F79F0879508951216B5
:1018700013061406551FF2CF4695F1DF08C0161661
:1018800017061806991FF1CF869571056105089412
:101890000895E894BB2766277727CB0197F9089529
:1018A0000E94630C0C94160C0E94080C38F00E94E5
:1018B0000F0C20F0952311F00C94FF0B0C94050CE9
:1018C00011240C944A0C0E94270C70F3959FC1F3CD
:1018D000950F50E0551F629FF001729FBB27F00DDE
:1018E000B11D639FAA27F00DB11DAA1F649F662733
:1018F000B00DA11D661F829F2227B00DA11D621F82
:10190000739FB00DA11D621F839FA00D611D221F3B
:10191000749F3327A00D611D231F849F600D211D1F
:10192000822F762F6A2F11249F5750409AF0F1F0A2
:1019300088234AF0EE0FFF1FBB1F661F771F881F0B
:1019400091505040A9F79E3F510580F00C94FF0B39
:101950000C944A0C5F3FE4F3983ED4F38695779558
:101960006795B795F795E7959F5FC1F7FE2B880FB1
:10197000911D9695879597F90895DB018F939F9315
:101980000E94EF0CBF91AF91A29F800D911DA39F6C
:10199000900DB29F900D11240895A1E21A2EAA1B5A
:1019A000BB1BFD010DC0AA1FBB1FEE1FFF1FA2170F
:1019B000B307E407F50720F0A21BB30BE40BF50B0C
:1019C000661F771F881F991F1A9469F76095709595
:1019D000809590959B01AC01BD01CF0108950E94B7
:1019E000370DA59F900DB49F900DA49F800D911D64
:1019F000112408950F93083090F0982F872F762F99
:101A0000652F542F432F322F22270850F4CF220F57
:101A1000331F441F551F661F771F881F991F0A9584
:101A2000B2F70F91089597FB10F8169400080F93E2
:101A3000083098F00850232F342F452F562F672F4A
:101A4000782F892F902DF4CF0594979587957795CA
:101A5000679557954795379527950A95AAF70F915A
:101A60000895EE0FFF1F0590F491E02D0994A29FB9
:101A7000B001B39FC001A39F700D811D1124911D62
:101A8000B29F700D811D1124911D089581E090E099
:0A1A9000F8940C944B0DF894FFCF6E
:101A9A000000000023018C00BB006A01EC00CA00B0
:061AAA00DE000D0A000041
:00000001FF
